:020000040800F2
:10000000300400209D010008F90E000833040008A8
:10001000F50E0008E5010008A1130008000000002B
:10002000000000000000000000000000650F000854
:10003000FF01000800000000FB0E00089D120008F0
:10004000B7010008B7010008B7010008B7010008B0
:10005000B7010008B7010008B7010008B7010008A0
:10006000B7010008B7010008B7010008B701000890
:10007000B7010008B7010008B7010008B701000880
:10008000B7010008B7010008B7010008B701000870
:10009000B7010008B7010008B7010008B701000860
:1000A000B7010008B7010008B7010008B701000850
:1000B000B7010008B7010008B7010008B701000840
:1000C000B7010008B7010008B7010008B701000830
:1000D000B7010008B7010008B7010008B701000820
:1000E000B7010008B7010008B7010008B701000810
:1000F000B7010008B7010008B7010008B701000800
:10010000B7010008B7010008B7010008B7010008EF
:10011000B7010008B7010008B7010008B7010008DF
:10012000B7010008B7010008B7010008B7010008CF
:10013000B7010008B7010008B7010008B7010008BF
:10014000B7010008B7010008B7010008B7010008AF
:10015000B7010008B7010008B7010008B70100089F
:10016000B7010008B7010008B7010008B70100088F
:10017000B7010008B7010008B7010008B70100087F
:10018000B7010008B7010008DFF80CD000F018F83C
:100190000048004709140008300400200648804742
:1001A00006480047FEE7FEE7FEE7FEE7FEE7FEE75C
:1001B000FEE7FEE7FEE7FEE73913000889010008C5
:1001C000064C074D06E0E06840F0010394E80700A4
:1001D00098471034AC42F6D3FFF7DAFF78300008C6
:1001E0009830000800BFFEE710B50246012000E08D
:1001F00050430B1EA1F10104E1B2F9D110BD7047CB
:1002000051B18200A2F1C042126842F001038200A3
:10021000A2F1C042136009E08200A2F1C04212685C
:10022000034B1A408300A3F1C0431A6070470000DB
:10023000FEFF0F0030B50021002200230468A40057
:10024000A4F1C0442168424C2140D0E901452C432F
:10025000C5682C4305692C4345692C4385692C43AB
:10026000C5692C43056A2C43456A2C43856A2C4397
:10027000C56A2C43056B2C4321430468A400A4F1F8
:10028000C04421608468082C0BD10468A400A4F148
:10029000C044246844F040050468A400A4F1C044AC
:1002A00025600468641CA400A4F1C044226802F024
:1002B0004042446B2468456B6D6844EA0514456B05
:1002C000AD6844EA0524456BAD8944EA0544456BB5
:1002D0002D8A44EA0554456B2D7D44EA0564456B3F
:1002E000AD692C4322430468641CA400A4F1C044FB
:1002F0002260C46AB4F5804F20D10468A400A4F140
:10030000C044D4F80431134C2340846B2468856BBB
:100310006D6844EA0514856BAD6844EA0524856B75
:10032000AD8944EA0544856BAD692C4323430468D9
:10033000A400A4F1C044C4F8043107E06FF0704594
:100340000468A400A4F1C044C4F8045130BD000006
:100350008000F7FF0000F0CFF0B50A46002100232F
:10036000002400BF3DE0012505FA01F3156805EA08
:1003700003049C4234D105684F000326BE40B543B8
:10038000056015794E00B54006683543056015795E
:10039000012D02D01579022D16D185684F00032654
:1003A000BE40B543856055794E00B54086683543FB
:1003B0008560456801268E40B5434560456896795D
:1003C0008E40B6B235434560C5684F000326BE4037
:1003D000B543C560D5794E00B540C6683543C560A4
:1003E000491C1029BFD3F0BDF0B5002300244D07F0
:1003F000ED0E02FA05F3CE1000F1200555F8265057
:100400004E07F70E0F26BE40B543CF1000F1200671
:1004100046F82750CE1000F1200555F8265045EA41
:100420000304CE1000F1200545F82640F0BD0183FD
:10043000704700BFFEE70000D321074A1180911CDE
:100440000888088808884FF6FF7101EA0020911C8F
:100450000988084370470000FE1F006C70B5044611
:1004600000250026094800880949098800FB01F693
:100470000021084600F088FC00F0F2FC00BF02E01A
:10048000044804806D1CB542FAD370BD24000020DE
:10049000260000200020006C70B505460E4614466C
:1004A0003146284600F008F90348008803490880CF
:1004B000881C048070BD000028000020FE1F006C16
:1004C0002DE9FF4F074616461C46BB460C2C01D1B2
:1004D00098460AE0102C01D1A04606E0182C02D163
:1004E0004FF0300801E0BDE8FF8FA6F12000C6B252
:1004F000002548E00C2C07D106EB4600244901EB0F
:10050000800010F8059010E0102C05D1214800EB78
:10051000061010F8059008E0182C06D106EB4600EE
:100520001D4901EB001010F805904FF0000A24E07F
:1005300009F0010030B11948028838460199FFF7E7
:10054000ABFF05E01648028838460199FFF7A4FF83
:100550004FEA6909781C87B2A7EB0B0104EBD47250
:10056000B1EB620F05D15F460198401C80B201904B
:1005700006E00AF1010000F0FF0ABAF1080FD7DB2C
:1005800000BF681CC5B24545B4DB00BFABE7000047
:1005900044140008B8180008A81E00081C00002019
:1005A0001E0000202DE9FF4F81B0074690461E46F1
:1005B0000E9CC3464FF0000906E00A20BBFBF0FB8F
:1005C00009F1010000F0FF09BBF1000FF5D1B145C1
:1005D00008DD26A322463846029900F04BF805B004
:1005E000BDE8F08F00253CE0A6EB0900A8421BDD2A
:1005F0000F9860B104EBD471491001FB057188B20A
:100600002346302200940299FFF75AFF27E004EBBB
:10061000D471491001FB057188B223462022009451
:100620000299FFF74DFF1AE0701B401EC1B20A206D
:10063000FFF7DAFDB8FBF0F00A21B0FBF1F201FBA5
:10064000120A04EBD471491001FB057188B20AF15A
:100650003001CAB2234600940299FFF731FF681CAB
:10066000C5B2B542C0DB00BFB9E700004552524FEA
:1006700052000000F0B506460F4615461C4611E034
:1006800022782B4639463046FFF71AFF284605EBFD
:10069000D07106EB61018EB206480088864200DB0D
:1006A00006E0641C2078202802DB20787E28E7DD25
:1006B00000BFF0BD2400002030B504460D46294699
:1006C000204600F061FB00F0CBFB024800880249A5
:1006D000088030BD1C0000200020006C00B59FB0D9
:1006E0000121782000F00AFC0121084600F016FCE8
:1006F0004FF480601D9001208DF8780000208DF867
:100700007A0002208DF8790001208DF87B001DA968
:100710007748FFF721FE4CF233701D9002208DF8D0
:10072000780000208DF87A0003208DF879000120F0
:100730008DF87B001DA96F48FFF70EFE4FF6807005
:100740001D9002208DF8780000208DF87A0003209B
:100750008DF8790001208DF87B001DA96648FFF710
:10076000FBFD04201D9002208DF8780000208DF8FC
:100770007A0003208DF8790001208DF87B001DA9F7
:100780005E48FFF7E9FD4FF480501D9002208DF880
:10079000780000208DF87A0003208DF87900012080
:1007A0008DF87B001DA95548FFF7D6FD0C220021CE
:1007B0005048FFF719FE0C2201214E48FFF714FEA6
:1007C0000C2204214B48FFF70FFE0C22052149485B
:1007D000FFF70AFE0C2208214648FFF705FE0C220F
:1007E00009214448FFF700FE0C220A214148FFF787
:1007F000FBFD0C220E213F48FFF7F6FD0C220F21D6
:100800003C48FFF7F1FD0C2207213B48FFF7ECFDC8
:100810000C2208213848FFF7E7FD0C220921364851
:10082000FFF7E2FD0C220A213348FFF7DDFD0C2221
:100830000B213148FFF7D8FD0C2211462E48FFF757
:10084000D3FD0C220D212C48FFF7CEFD0C220E21EA
:100850002948FFF7C9FD0C220F212748FFF7C4FDE7
:100860000C2202212548FFF7BFFD0C221146234828
:10087000FFF7BAFD0F200790002008903C20099058
:1008800000200A900B900C900D9008200090002002
:10089000019007200290002003900490059006909C
:1008A00006200E9000200F90109010201190002034
:1008B000129014901390159016904FF4805017904A
:1008C000002018904FF48040199000201A9007A83B
:1008D0001B90CDF870D00EA8FFF7ACFC01210620CC
:1008E000FFF78EFC322000F06DFD1FB000BD000050
:1008F00000140240000C02400010024000180240A8
:1009000010B5FFF7EBFEFFF797FDEB4908800846AF
:10091000008849F24131884223D0A120E74908806C
:10092000881C0088E4490880E448801C008808800E
:10093000084600884FF6FF7101EA0020DE49088072
:10094000DE48801C008809880843DB490880084687
:10095000008845F26171884203D141F66310D6499F
:100960000880D548008849F2413188421CD1D448DA
:10097000006820F00F004FF02041C1F81C0108462C
:10098000D0F81C0120F47060C1F81C010846D0F8B2
:100990001C0140F00300C1F81C010846D0F81C01FE
:1009A00040F40070C1F81C01C348008849F241318D
:1009B00088427DD1CF20C14908800020891C088051
:1009C000C120088030200880ED20891E0880642026
:1009D000891C08800320088012200880812008805C
:1009E000E820891E08808520891C08801020088046
:1009F0007A200880CB20891E08803920891C088035
:100A00002C200880002008803420088002200880E4
:100A1000F720891E08802020891C0880EA20891E72
:100A200008800020891C08800880C020891E08805A
:100A30001B20891C0880C120891E08800120891C78
:100A40000880C520891E08803020891C0880088005
:100A5000C720891E0880B720891C08803620891E7F
:100A600008804820891C08803A20891E088055206B
:100A7000891C0880B120891E08800020891C0880FC
:100A80001A200880B620891E08800A20891C088048
:100A9000A2200880F220891E08800020891C08807E
:100AA0002620891E08800120891C0880E02000E0A3
:100AB00060E0891E08800F20891C08802A20088099
:100AC00028200880082008800E2008800820088040
:100AD00054200880A9200880432008800A2008802C
:100AE0000F20088000200880088008800880E1200E
:100AF000891E08800020891C088015200880172086
:100B000008800720088011200880062008802B20FC
:100B10000880562008803C2008800520088010208E
:100B200008800F2008803F20088008800F20088060
:100B30002B20891E08800020891C08800880012045
:100B400008803F2008802A20891E08800020891CF8
:100B5000088008800880EF2008801120891E088006
:100B6000782000F02FFC29205449088001205549A5
:100B7000086098E05048008841F663118842F8D137
:100B8000E2204E4908801D20891C08800220088030
:100B900004200880642000F025FCE02047490880FC
:100BA0000120891C08800A2000F00CFCE020434949
:100BB00008800320891C08800C2000F003FC012021
:100BC0003E4908800A2000F0FDFBE6203B490880F2
:100BD0002F20891C0880FF2008800880B020891EF3
:100BE00008802020891C08800020088003200880BD
:100BF00040F21F3008800120088040F2DF1008809A
:100C000000200880B420891E08800420891C0880E8
:100C100040F21F400880002008802E20088000201D
:100C20000880088008800880B620891E088002207D
:100C3000891C08804FF4037008800020088017206A
:100C4000088015200880002008800880F020891E78
:100C500008800320891C08802920891E0880D02054
:100C600008800020891C0880BE20891E088005207D
:100C7000891C0880FE200880012008800020088050
:100C800008800880B820891E08800320891C0880FD
:100C900001200880BA20891E08800120891C088054
:100CA000FF2000F0BFFA002000F0D4F94FF6FF70EB
:100CB000FFF7D4FB10BD000020000020FE1F006CD9
:100CC0001C0100A0A882424230B58418641EA2B262
:100CD000CC18641EA3B2264C24786CBB254C248807
:100CE00041F66315AC4227D1234C2488A41A241A58
:100CF000A0B2CC18641EA3B2204C2488204D2C80B6
:100D00000412AD1C2C80C4B22C808418641EC4F361
:100D10000F242C808418641EE4B22C80194C248883
:100D2000AD1E2C800C12AD1C2C80CCB22C801C1261
:100D30002C80DCB22C8019E0104C2488104D2C80C3
:100D40000412AD1C2C80C4B22C8014122C80D4B29E
:100D50002C800C4C2488AD1E2C800C12AD1C2C80D9
:100D6000CCB22C801C122C80DCB22C8030BD000058
:100D70002200002020000020240000202A00002063
:100D8000FE1F006C2C0000202E4A128849F24133CD
:100D90009A4212D12C4A12882C4B1A8002129B1CA8
:100DA0001A80C2B21A802A4A12889B1E1A800A121E
:100DB0009B1C1A80CAB21A8042E0224A128841F66D
:100DC00063139A423CD1234A12788AB9224A128884
:100DD000521E121A90B21C4A12881C4B1A80002212
:100DE0009B1C1A801A8002121A80C2B21A8013E069
:100DF000154A1288154B1A8002129B1C1A80C2B227
:100E00001A80154A1288521EC2F30F221A80124A03
:100E10001278521ED2B21A800D4A12880B4B1A80D9
:100E20000A129B1C1A80CAB21A800C4A1288521EDF
:100E3000C2F30F221A80094A1278521ED2B21A80C7
:100E400070470000200000202A000020FE1F006CD8
:100E50002C0000202200002024000020260000207A
:100E600002480088024908807047000028000020DE
:100E7000FE1F006C024A1080921C11807047000017
:100E8000FE1F006C1CB50121512000F037F818201E
:100E9000009001208DF8040000208DF8060003204A
:100EA0008DF8050001208DF8070069460E48FFF710
:100EB00053FA18210C48FFF7BAFA4FF4007000906B
:100EC00069460A48FFF748FA4FF400710748FFF7F0
:100ED000AEFA0220009069460548FFF73DFA02216C
:100EE0000348FFF7A4FA1CBD00100240001802409E
:100EF0000000024000BFFEE77047704729B1064A74
:100F000012680243044B1A6004E0034A12688243E9
:100F1000014B1A60704700003038024029B1064A80
:100F200012680243044B1A6004E0034A12688243C9
:100F3000014B1A60704700003838024006480078BC
:100F400040B106480068C0430549C1F88C02002042
:100F50000149087070470000170000208C024242CF
:100F600000004242704700000CB500200190009044
:100F70003448006840F480303249086000BF31488E
:100F8000006800F4003000900198401C0190009827
:100F900018B90198B0F5A04FF1D12A48006800F4C3
:100FA000003010B10120009001E000200090009876
:100FB000012846D123484030006840F08050214944
:100FC000403108602048006840F440401E490860F5
:100FD0001C48083000681B49083108600846006852
:100FE00040F4004008600846006840F4A0500860E3
:100FF0001648091F0860081F006840F08070091F2C
:10100000086000BF0F48006800F000700028F9D0A9
:1010100040F205700E4908600A480830006820F068
:1010200003000849083108600846006840F00200E3
:10103000086000BF03480830006800F00C00082872
:10104000F8D10CBD00380240007000400854400741
:10105000003C024010B504468CBB002033490870A8
:101060003348008849F24131884210D12C2031495F
:1010700008802A20304908802B2030490880F02041
:101080002F4908804FF4A0702E49088049E0284875
:10109000008841F66311884243D12C2025490880FD
:1010A0002B20254908802A20244908804FF4F0701D
:1010B000234908804FF448702249088031E0FFE757
:1010C00001201A4908701A48008849F241318842C3
:1010D00010D12C20174908802A20174908802B207E
:1010E000164908804FF4A07015490880F020154972
:1010F000088016E00E48008841F66311884210D13E
:101100002C200C4908802A200B4908802B200B49F1
:1011100008804FF448700A4908804FF4F07009497C
:101120000880002000F010F810BD00002200002010
:1011300020000020280000202A0000202C00002091
:10114000240000202600002070B50546002400265B
:1011500030480078012805D12F48008849F24131F4
:10116000884208D02B480078F0B92B48008841F617
:101170006311884218D1082D15D2DFE805F0040666
:10118000080A0C0E101206250DE007250BE00425B9
:1011900009E0052507E0012505E0002503E003251A
:1011A00001E0022500BF00BF082D1CD2DFE805F0DA
:1011B0000406090C0F12151800BF14E044F0800457
:1011C00011E044F040040EE044F0C0040BE044F0B1
:1011D000200408E044F0600405E044F0A00402E0CC
:1011E00044F0E00400BF00BF36260B48008849F2F7
:1011F0004131884201D144F0080421463046FFF7CE
:1012000039FE064803880648028800210846FFF791
:101210005BFD70BD22000020200000202600002081
:1012200024000020BE21074A11800521921C118054
:101230001146088001211180FF21118000211180B9
:1012400011807047FE1F006C30B50146481EB0F19A
:10125000807F01D3012030BD481E4FF0E022506155
:1012600050170F22002807DA13071D0E094B00F054
:101270000F04241F1D5503E013071C0E064B1C54BE
:1012800000BF00204FF0E022906107201061002095
:10129000E1E7000018ED00E000E400E01948006814
:1012A000401C18490860012017490870154800685B
:1012B0000A21B0FBF1F201FB120010B90120134921
:1012C0000870104800686421B0FBF1F201FB1200C5
:1012D00010B901200E4908700A4800684FF47A716D
:1012E000B0FBF1F201FB120010B9012009490870AE
:1012F00004480068B0F57A7F02D9002001490860EF
:101300007047000018000020140000201500002085
:10131000160000201700002010B5064800684FF4A2
:101320007A71B0FBF1F42046FFF78EFF08B100BFE1
:10133000FEE710BD0000002010B51548006840F41D
:101340007000134908601348006840F0010011491B
:10135000086000200F49083108600E4800680E49F7
:1013600008400C4908600D48091D0860081F006806
:1013700020F48020091F0860002006490C31086015
:10138000FFF7F2FD4FF0006001498039086010BDA1
:1013900088ED00E000380240FFFFF6FE1030002428
:1013A00000BFFEE702E008C8121F08C1002AFAD1F8
:1013B00070477047002001E001C1121F002AFBD1D5
:1013C0007047000001B5064909684FF47A62B1FB25
:1013D000F2F00099484300E0401E0028FCD108BD0F
:1013E0000000002001B506490968064AB1FBF2F089
:1013F0000099484300E0401E0028FCD108BD0000D1
:101400000000002000093D001CB5FFF785FFFFF735
:1014100077FAFFF737FD4FF47840084908800CE071
:10142000FFF78CFD01201821CDE900100448026867
:10143000082300210846FFF7B5F8F1E71C0000205B
:101440008C0242420000000000000000000000008A
:1014500000000404040404040004000000140A0A48
:101460000000000000000000000014143F140A3FB8
:101470000A0A000000041E1505060C14150F0400CE
:10148000000012150D0A142C2A1200000000040A94
:101490000A1E1515093600000002020100000000B6
:1014A00000000000002010080808080808102000AC
:1014B00000020408080808080804020000000004EC
:1014C000150E0E150400000000000404041F04049F
:1014D0000400000000000000000000000002020103
:1014E00000000000001F00000000000000000000DD
:1014F00000000000000200000010080808040402B8
:101500000202010000000E1111111111110E000054
:101510000000040604040404040E000000000E1180
:1015200011080402011F000000000E11100C101021
:10153000110E00000000080C0A0A091E081800001D
:1015400000001F01010F1010110E000000000E0915
:10155000010F1111110E000000001F0908040404FE
:101560000404000000000E11110E1111110E0000F4
:1015700000000E1111111E10120E000000000000DC
:10158000040000000004000000000000000400004F
:1015900000040400002010080402040810200000C9
:1015A000000000001F00001F0000000000020408EF
:1015B000102010080402000000000E11110804049D
:1015C0000004000000000E111915151D011E000079
:1015D000000004040C0A0A1E1233000000000F125F
:1015E000120E1212120F000000001E110101010163
:1015F000110E000000000F1212121212120F000042
:1016000000001F120A0E0A02121F000000001F1223
:101610000A0E0A020207000000001C120101391123
:10162000120C000000003312121E121212330000BE
:1016300000001F0404040404041F000000003E080E
:101640000808080808090700000037120A060A0AF5
:10165000123700000000070202020202223F0000CF
:1016600000001B1B1B1B15151515000000003B126D
:1016700016161A1A1217000000000E11111111117E
:10168000110E000000000F12120E020202070000ED
:1016900000000E1111111117190E180000000F1281
:1016A000120E0A121237000000001E110106081067
:1016B000110F000000001F1504040404040E0000B4
:1016C0000000331212121212120C0000000033122A
:1016D000120A0A0C0404000000001515150E0A0A6F
:1016E0000A0A000000001B0A0A04040A0A1B000080
:1016F00000001B0A0A040404040E000000001F0975
:1017000008040402121F0000001C04040404040462
:1017100004041C000002020204040808081000006F
:10172000000E08080808080808080E0000040A004F
:1017300000000000000000000000000000000000A9
:101740000000003F00040000000000000000000056
:1017500000000000000C121C123C000000000302FC
:10176000020E1212120E000000000000001C1202F5
:10177000021C000000001810101C1212123C000085
:1017800000000000000C121E021C000000003804C3
:10179000041E0404041E000000000000003C120CA3
:1017A000021E221C00000302020E12121237000059
:1017B0000000040000060404040E000000000800FD
:1017C000000C08080808080700000302023A0A0E85
:1017D000123700000000070404040404041F000082
:1017E00000000000000F1515151500000000000096
:1017F000000F12121237000000000000000C12123D
:10180000120C000000000000000F1212120E02075E
:1018100000000000001C1212121C10380000000012
:10182000001B06020207000000000000001E020C60
:10183000101E000000000004040E04040418000040
:1018400000000000001B1212123C0000000000000B
:101850000037120A0C040000000000000015150EED
:101860000A0A000000000000001B0A040A1B000016
:10187000000000000037120A0C04040300000000FE
:10188000001E0804041E00000018080808040808C8
:1018900008081800080808080808080808080808C0
:1018A00000060404040804040404060002251800C9
:1018B0000000000000000000000000000000000028
:1018C00000000000000000000000000808080808F0
:1018D000080800001818000000486C2412000000DE
:1018E00000000000000000000000002424247F12FB
:1018F00012127F12121200000000081C2A2A0A0C81
:101900001828282A2A1C0808000000222515151569
:101910002A585454542200000000000C1212120ADB
:1019200076252911916E00000006060403000000D0
:10193000000000000000000000402010100808080F
:1019400008080810102040000002040808101010B9
:1019500010101008080402000000000008086B1CAA
:101960001C6B0808000000000000000008080808C0
:101970007F080808080000000000000000000000C8
:101980000000000006060403000000000000000044
:10199000FE00000000000000000000000000000049
:1019A00000000000060600000000804040202010DB
:1019B00010080804040202000000001824424242F9
:1019C0004242424224180000000000080E080808A5
:1019D00008080808083E00000000003C424242207F
:1019E00020100804427E00000000003C4242201803
:1019F00020404042221C0000000000203028242407
:101A000022227E20207800000000007E0202021ABE
:101A100026404042221C0000000000382402021A26
:101A200026424242241800000000007E22221010AC
:101A300008080808080800000000003C4242422450
:101A400018244242423C0000000000182442424256
:101A500064584040241C00000000000000001818DA
:101A6000000000001818000000000000000000083E
:101A700000000000000808040000004020100804D6
:101A800002040810204000000000000000007F0059
:101A900000007F0000000000000000020408102089
:101AA00040201008040200000000003C4242464072
:101AB00020101000181800000000001C225A555574
:101AC00055552D42221C000000000008081814146F
:101AD000243C224242E700000000001F2222221E76
:101AE00022424242221F00000000007C42420101CB
:101AF00001010142221C00000000001F224242425C
:101B000042424242221F00000000003F4212121EC9
:101B100012120242423F00000000003F4212121E19
:101B200012120202020700000000003C2222010102
:101B300001712122221C0000000000E742424242C3
:101B40007E42424242E700000000003E08080808CA
:101B500008080808083E00000000007C1010101063
:101B6000101010101010110F0000007722120A0E32
:101B70000A1212222277000000000007020202026D
:101B800002020202427F000000000077363636363D
:101B90002A2A2A2A2A6B0000000000E346464A4A05
:101BA00052525262624700000000001C2241414133
:101BB00041414141221C00000000003F424242429C
:101BC0003E020202020700000000001C22414141C7
:101BD00041414D53321C60000000003F4242423EF2
:101BE0001212222242C700000000007C424202047E
:101BF00018204042423E00000000007F49080808CB
:101C000008080808081C0000000000E742424242A1
:101C100042424242423C0000000000E7424222248D
:101C200024141418080800000000006B49494949B1
:101C30005555362222220000000000E742242418D5
:101C40001818242442E70000000000772222141410
:101C500008080808081C00000000007E2120101061
:101C600008040442423F00000078080808080808F9
:101C700008080808080878000000020204040808A0
:101C80000810102020204040001E101010101010CE
:101C90001010101010101E0000384400000000004A
:101CA0000000000000000000000000000000000034
:101CB00000000000000000FF000608000000000017
:101CC0000000000000000000000000000000003CD8
:101CD0004278444242FC0000000000030202021A63
:101CE00026424242261A0000000000000000003890
:101CF0004402020244380000000000604040407886
:101D00004442424264D80000000000000000003C51
:101D1000427E0202423C0000000000F08808087E7B
:101D200008080808083E0000000000000000007CD1
:101D300022221C023C42423C000000030202023A02
:101D40004642424242E700000000000C0C00000E38
:101D500008080808083E0000000000303000003885
:101D6000202020202020221E0000000302020272F8
:101D7000120A1612227700000000000E0808080858
:101D800008080808083E0000000000000000007F6E
:101D90009292929292B70000000000000000003B77
:101DA0004642424242E70000000000000000003CC2
:101DB00042424242423C0000000000000000001B82
:101DC00026424242221E0207000000000000007866
:101DD00044424242447840E00000000000000077A6
:101DE0004C040404041F0000000000000000007CFC
:101DF00042023C40423E0000000000000008083E55
:101E00000808080808300000000000000000006317
:101E10004242424262DC000000000000000000E795
:101E2000422424140808000000000000000000EB19
:101E300049495555222200000000000000000076AC
:101E400024181818246E000000000000000000E7AD
:101E50004224241418080807000000000000007E37
:101E600022100808447E000000C0202020202010FE
:101E7000202020202020C000101010101010101062
:101E80001010101010101010000608080808081094
:101E900008080808080806000C32C200000000000C
:101EA0000000000000000000000000000000000032
:101EB0000000000000000000000000000000000022
:101EC0000000000000000000000000000000000012
:101ED0000000000000000000000000000000000002
:101EE000E000E000E000E000E000400040004000D2
:101EF000400040004000000000000000E000E00062
:101F0000E000000000000000000000006006600625
:101F10003003980188004400000000000000000029
:101F200000000000000000000000000000000000B1
:101F300000000000000000000000000000000000A1
:101F400000000802080208020802FE07FE07080255
:101F5000080204010401FE07FE0704010401040154
:101F6000040100000000000000000000000040002C
:101F70004000F00158034C034C034C005800700023
:101F8000E000C001C00140034C034C034C03480176
:101F9000F0004000400000000000000000000000D1
:101FA00000000E030A01110191009100D1005100BF
:101FB000FA03AE0260045004500458044804880236
:101FC000840300000000000000000000000000008A
:101FD000000038006400640064006400A4031C0175
:101FE0000C011A019200B300E3006300C300A604D1
:101FF0001C03000000000000000000000C001C009A
:1020000010001000080006000000000000000000A2
:1020100000000000000000000000000000000000C0
:1020200000000000000000000000000000040002AA
:10203000000180018000C000C000600060006000FE
:102040006000600060006000C000C000800080018F
:102050000001000200040000000000000200040073
:1020600008001800100030003000600060006000C0
:102070006000600060006000300030001000180058
:102080000800040002000000000000000000000042
:10209000000000004000400040004E0E5C07F001D0
:1020A000F0015C074E0E40004000400000000000C0
:1020B0000000000000000000000000000000000020
:1020C00000000000000040004000400040004000D0
:1020D000FE0F4000400040004000400000000000B3
:1020E00000000000000000000000000000000000F0
:1020F00000000000000000000000000000000000E0
:102100000000000000000000000000000C001C00A7
:102110001000100008000600000000000000000091
:1021200000000000000000000000000000000000AF
:10213000FE0700000000000000000000000000009A
:10214000000000000000000000000000000000008F
:10215000000000000000000000000000000000007F
:102160000000000000000000000000001C001C0037
:102170001C00000000000000000000000004000639
:1021800000020003000100018000800040004000C8
:1021900060002000200010001000080008000C0063
:1021A0000400060002000000000000000000000023
:1021B0000000F00098010C030C0306060606060654
:1021C000060606060606060606060C030C0398011C
:1021D000F00000000000000000000000000000000F
:1021E0000000400060007C00600060006000600053
:1021F00060006000600060006000600060006000DF
:10220000FC030000000000000000000000000000CF
:102210000000F800840102030603060300038001A6
:102220008001C00020001000080204020202FE0328
:10223000FE0300000000000000000000000000009D
:1022400000007800C4008601860186018001C0007C
:1022500070008001000100030603060306038401E9
:10226000F800000000000000000000000000000076
:1022700000018001C001C001A0019001900188010E
:10228000840184018201FE078001800180018001B8
:10229000E007000000000000000000000000000057
:1022A0000000FC03FC030400040004000400F4002C
:1022B0008C0104030003000306030603820184016A
:1022C000F800000000000000000000000000000016
:1022D0000000E00118030C030C0004000600E601F6
:1022E00016030E0606060606060604060C0218036A
:1022F000F0000000000000000000000000000000EE
:102300000000F807FC070C02040104010001800032
:1023100080004000400040006000600060006000FD
:10232000600000000000000000000000000000004D
:102330000000F8010C030606060606060E023C0322
:10234000F000CC01040306060606060606060C038A
:10235000F00100000000000000000000000000008C
:102360000000F0000C010C03060206060606060635
:1023700006078C0678060006000300030C018C019A
:1023800078000000000000000000000000000000D5
:1023900000000000000000000000E000E000E0009D
:1023A000000000000000000000000000E000E0006D
:1023B000E00000000000000000000000000000003D
:1023C000000000000000000000000000600060004D
:1023D000000000000000000000000000000060009D
:1023E000600040002000000000000000000000002D
:1023F00000040002000180004000200010000800DE
:1024000004000800100020004000800000010002CD
:1024100000040000000000000000000000000000B8
:10242000000000000000000000000000FE070000A7
:10243000000000000000FE07000000000000000097
:10244000000000000000000000000000000000008C
:10245000040008001000200040008000000100027D
:10246000000400020001800040002000100008006D
:102470000400000000000000000000000000000058
:10248000F0010C03020602060606060600038001A0
:10249000600020002000200000000000700070009C
:1024A00070000000000000000000000000000000BC
:1024B0000000E00138060804CC0A640B260926094E
:1024C000160916099609960566030C080C041802ED
:1024D000E00100000000000000000000000000001B
:1024E0000000600060007000D000D000C8008801CB
:1024F00088018801F80104030403040304060606A6
:102500000F0F0000000000000000000000000000AD
:102510000000FF008601060306030603060386018A
:10252000FE00060306020606060606060606060363
:10253000FF0100000000000000000000000000009B
:102540000000E00718060C040C0404000600060056
:10255000060006000600060006040C040C02180122
:10256000F00000000000000000000000000000007B
:1025700000007F008601060306030606060606061F
:102580000606060606060606060606030603C60136
:102590007F000000000000000000000000000000BC
:1025A0000000FF03060206040600060086008600FF
:1025B000FE008600860006000600060406040602E9
:1025C000FF03000000000000000000000000000009
:1025D0000000FF03060306040604060086008600CA
:1025E000FE008600860006000600060006000600C3
:1025F0000F000000000000000000000000000000CC
:102600000000F00218030C020C0204000600060091
:1026100006000600C60F060306030C030C0318038E
:10262000F0000000000000000000000000000000BA
:1026300000000F0F06060606060606060606060634
:10264000FE07060606060606060606060606060631
:102650000F0F00000000000000000000000000005C
:102660000000FC036000600060006000600060002B
:10267000600060006000600060006000600060005A
:10268000FC0300000000000000000000000000004B
:102690000000F00F80018001800180018001800135
:1026A0008001800180018001800180018001800122
:1026B00080018601C6007C000000000000000000D0
:1026C0000000CF07060186004600460026003600BF
:1026D0003E006E00E600C600C6018601060306073E
:1026E0008F0F00000000000000000000000000004C
:1026F00000000F00060006000600060006000600A7
:10270000060006000600060006000604060406028F
:10271000FF030000000000000000000000000000B7
:1027200000000F0F0E070E070E079A069A069A066C
:102730009A065A0672067206720672062206220669
:10274000270F000000000000000000000000000053
:102750000000070E0E040E041A041A043204620468
:102760006204C204C20482050207020702060206CE
:10277000070400000000000000000000000000004E
:102780000000F00098010C030C020606060606067F
:10279000060606060606060606060C020C03980147
:1027A000F000000000000000000000000000000039
:1027B0000000FF01060306060606060606060606D4
:1027C0000603FE01060006000600060006000600DD
:1027D0000F000000000000000000000000000000EA
:1027E0000000F00098010C030C020606060606061F
:1027F000060606060606060676064C028C038801C7
:10280000F00180070003000000000000000000004D
:102810000000FF0106030606060606060606060376
:10282000FE006600C600C600860186010603060398
:102830000F0E00000000000000000000000000007B
:102840000000F8040C070604060406000E003C0015
:10285000F000C003000300060206020606060E038F
:10286000F201000000000000000000000000000075
:102870000000FE07620461086108600060006000FB
:102880006000600060006000600060006000600048
:10289000F000000000000000000000000000000048
:1028A00000000F0E060406040604060406040604CF
:1028B00006040604060406040604060406040C02C4
:1028C000F80100000000000000000000000000000F
:1028D00000001F0F0E060C020C020C020C01180166
:1028E000180118011801B000B000B000F00060003D
:1028F0006000000000000000000000000000000078
:102900000000EF0E6604660466026602E602EC0250
:10291000EC02DC01DC01DC01DC019C0188008800A8
:10292000880000000000000000000000000000001F
:1029300000009E070C03180118019800B0007000F9
:1029400060006000E000D000D001980188010C0315
:102950009E070000000000000000000000000000D2
:1029600000001F0F0E060C020C0118011801B00028
:10297000B0007000600060006000600060006000F7
:10298000F80100000000000000000000000000004E
:102990000000FC07040382038001C001C000C000E6
:1029A0006000600030003000180018041C040C02A5
:1029B000FE0300000000000000000000E00720000F
:1029C0002000200020002000200020002000200007
:1029D00020002000200020002000200020002000F7
:1029E00020002000E00700000000000000000000C0
:1029F000040008000800080010001000200020005B
:102A000020004000400080008000800000010001A4
:102A1000000200020002000400000000FC00800030
:102A200080008000800080008000800080008000A6
:102A30008000800080008000800080008000800096
:102A400080008000FC00000000000000E000B001F9
:102A5000080200000000000000000000000000006C
:102A60000000000000000000000000000000000066
:102A70000000000000000000000000000000000056
:102A80000000000000000000000000000000000046
:102A90000000000000000000000000000000000036
:102AA000000000000000FF0F0000000018006000A0
:102AB0000000000000000000000000000000000016
:102AC0000000000000000000000000000000000006
:102AD00000000000000000000000000000000000F6
:102AE000000000000000000000000000F0010C03E6
:102AF0000C03E00338030C030603060306038E0BE6
:102B00007C0F00000000000000000000000000003A
:102B100008000E000C000C000C000C00CC013C0363
:102B20001C060C060C060C060C060C060C021C03FC
:102B3000F4010000000000000000000000000000A0
:102B4000000000000000000000000000F0008C0108
:102B50008C01860106000600060006020C020C012C
:102B6000F000000000000000000000000000000075
:102B700000028003000300030003000378038C03BA
:102B80000C030603060306030603060304038C076F
:102B900078010000000000000000000000000000BC
:102BA000000000000000000000000000E001180329
:102BB00008060C06FC070C000C000C001804380278
:102BC000E001000000000000000000000000000024
:102BD0000000C0036006300630003000FE03300005
:102BE0003000300030003000300030003000300065
:102BF000FC010000000000000000000000000000D8
:102C0000000000000000000000000000F00E980925
:102C10000C030C030C039801F8000C007C00F80373
:102C2000060606060E07F80100000000000000007E
:102C300008000E000C000C000C000C00EC011C0342
:102C40000C030C030C030C030C030C030C030C030C
:102C50009E070000000000000000000000000000CF
:102C60000000600060000000000000007C006000C8
:102C70006000600060006000600060006000600054
:102C8000FC03000000000000000000000000000045
:102C9000000080018001000000000000F0018001C0
:102CA000800180018001800180018001800180011C
:102CB00080018001CC007C000000000000000000CA
:102CC00008000E000C000C000C000C00CC038C0063
:102CD000CC004C006C007C00DC00CC008C018C0132
:102CE0009E0700000000000000000000000000003F
:102CF00040007C00600060006000600060006000D8
:102D000060006000600060006000600060006000C3
:102D1000FC030000000000000000000000000000B4
:102D20000000000000000000000000007707EE0631
:102D30006606660666066606660666066606660633
:102D4000EF0E000000000000000000000000000086
:102D5000000000000000000000000000CE013C0365
:102D60000C030C030C030C030C030C030C030C03EB
:102D70009E070000000000000000000000000000AE
:102D8000000000000000000000000000F0009801BA
:102D90000C03060606060606060606060C030C03CA
:102DA000F000000000000000000000000000000033
:102DB000000000000000000000000000EE011C0305
:102DC0000C060C060C060C060C060C060C031C0369
:102DD000EC010C000C003E000000000000000000B0
:102DE00000000000000000000000000078028C03DA
:102DF0000C030603060306030603060304038C0301
:102E0000780300030003C00700000000000000007A
:102E10000000000000000000000000009F075806AE
:102E200038001800180018001800180018001800C2
:102E3000FF00000000000000000000000000000093
:102E4000000000000000000000000000F00718066D
:102E50000C040C003800F0018003040604060C0387
:102E6000FC01000000000000000000000000000065
:102E7000000000002000200030003000FE01300083
:102E800030003000300030003000300030023002BE
:102E9000E001000000000000000000000000000051
:102EA0000000000000000000000008028E030C0378
:102EB0000C030C030C030C030C030C030C039C0706
:102EC0007801000000000000000000000000000089
:102ED0000000000000000000000000003E0F1C0683
:102EE00018021802300130013001E000E000E0007B
:102EF0004000000000000000000000000000000092
:102F0000000000000000000000000000EF0DC604FB
:102F1000C604E604EC04AC039C039C039C03080178
:102F20000801000000000000000000000000000098
:102F3000000000000000000000000000BE071801B3
:102F40009801B00070006000E000D0009801880394
:102F5000DE0700000000000000000000000000008C
:102F6000000000000000000000000000BE071C017F
:102F700018011801B000B000B0006000600040000F
:102F80002000200014001C000000000000000000D1
:102F9000000000000000000000000000FC038401AD
:102FA000C401C000E000600070003004380418065E
:102FB000FC0300000000000000000000000380018E
:102FC0008000800080008000800080008000C000C1
:102FD0002000C00080008000800080008000800011
:102FE00080008001000300004000400040004000DD
:102FF00040004000400040004000400040004000D1
:1030000040004000400040004000400040004000C0
:103010004000400040004000000000000C0018008C
:103020001000100010001000100010001000300000
:1030300040003000100010001000100010001000C0
:10304000100018000C00000000001C0024004208C2
:1030500082040007000000000000000000000000E3
:103060000000000000000000000000000000000060
:103070000000000000000000983000080000002060
:1030800030000000A4130008C83000083000002001
:1030900000040000B4130008007A030A00000000D6
:1030A00000000000010203040607080900000000F8
:1030B000000000000000FFFF000000000000000012
:0830C000000000000000000008
:040000050800019D51
:00000001FF
